{
  "_format": "hh-sol-artifact-1",
  "contractName": "TokenVesting",
  "sourceName": "contracts/TokenVesting.sol",
  "abi": [
    {
      "inputs": [
        {
          "internalType": "address",
          "name": "_tokenAddress",
          "type": "address"
        }
      ],
      "stateMutability": "nonpayable",
      "type": "constructor"
    },
    {
      "inputs": [],
      "name": "EnforcedPause",
      "type": "error"
    },
    {
      "inputs": [],
      "name": "ExpectedPause",
      "type": "error"
    },
    {
      "inputs": [
        {
          "internalType": "address",
          "name": "owner",
          "type": "address"
        }
      ],
      "name": "OwnableInvalidOwner",
      "type": "error"
    },
    {
      "inputs": [
        {
          "internalType": "address",
          "name": "account",
          "type": "address"
        }
      ],
      "name": "OwnableUnauthorizedAccount",
      "type": "error"
    },
    {
      "inputs": [],
      "name": "ReentrancyGuardReentrantCall",
      "type": "error"
    },
    {
      "anonymous": false,
      "inputs": [
        {
          "indexed": true,
          "internalType": "address",
          "name": "beneficiary",
          "type": "address"
        }
      ],
      "name": "BeneficiaryRemovedFromWhitelist",
      "type": "event"
    },
    {
      "anonymous": false,
      "inputs": [
        {
          "indexed": true,
          "internalType": "address",
          "name": "beneficiary",
          "type": "address"
        }
      ],
      "name": "BeneficiaryWhitelisted",
      "type": "event"
    },
    {
      "anonymous": false,
      "inputs": [
        {
          "indexed": true,
          "internalType": "address",
          "name": "previousOwner",
          "type": "address"
        },
        {
          "indexed": true,
          "internalType": "address",
          "name": "newOwner",
          "type": "address"
        }
      ],
      "name": "OwnershipTransferred",
      "type": "event"
    },
    {
      "anonymous": false,
      "inputs": [
        {
          "indexed": false,
          "internalType": "address",
          "name": "account",
          "type": "address"
        }
      ],
      "name": "Paused",
      "type": "event"
    },
    {
      "anonymous": false,
      "inputs": [
        {
          "indexed": true,
          "internalType": "address",
          "name": "beneficiary",
          "type": "address"
        },
        {
          "indexed": false,
          "internalType": "uint256",
          "name": "amount",
          "type": "uint256"
        }
      ],
      "name": "TokensClaimed",
      "type": "event"
    },
    {
      "anonymous": false,
      "inputs": [
        {
          "indexed": false,
          "internalType": "address",
          "name": "account",
          "type": "address"
        }
      ],
      "name": "Unpaused",
      "type": "event"
    },
    {
      "anonymous": false,
      "inputs": [
        {
          "indexed": true,
          "internalType": "address",
          "name": "beneficiary",
          "type": "address"
        }
      ],
      "name": "VestingRevoked",
      "type": "event"
    },
    {
      "anonymous": false,
      "inputs": [
        {
          "indexed": true,
          "internalType": "address",
          "name": "beneficiary",
          "type": "address"
        },
        {
          "indexed": false,
          "internalType": "uint256",
          "name": "amount",
          "type": "uint256"
        }
      ],
      "name": "VestingScheduleCreated",
      "type": "event"
    },
    {
      "inputs": [
        {
          "internalType": "address",
          "name": "beneficiary",
          "type": "address"
        }
      ],
      "name": "addToWhitelist",
      "outputs": [],
      "stateMutability": "nonpayable",
      "type": "function"
    },
    {
      "inputs": [
        {
          "internalType": "address",
          "name": "beneficiary",
          "type": "address"
        }
      ],
      "name": "calculateVestedAmount",
      "outputs": [
        {
          "internalType": "uint256",
          "name": "",
          "type": "uint256"
        }
      ],
      "stateMutability": "view",
      "type": "function"
    },
    {
      "inputs": [],
      "name": "claimVestedTokens",
      "outputs": [],
      "stateMutability": "nonpayable",
      "type": "function"
    },
    {
      "inputs": [
        {
          "internalType": "address",
          "name": "beneficiary",
          "type": "address"
        },
        {
          "internalType": "uint256",
          "name": "amount",
          "type": "uint256"
        },
        {
          "internalType": "uint256",
          "name": "cliffDuration",
          "type": "uint256"
        },
        {
          "internalType": "uint256",
          "name": "vestDuration",
          "type": "uint256"
        },
        {
          "internalType": "uint256",
          "name": "startTime",
          "type": "uint256"
        }
      ],
      "name": "createVestingSchedule",
      "outputs": [],
      "stateMutability": "nonpayable",
      "type": "function"
    },
    {
      "inputs": [],
      "name": "owner",
      "outputs": [
        {
          "internalType": "address",
          "name": "",
          "type": "address"
        }
      ],
      "stateMutability": "view",
      "type": "function"
    },
    {
      "inputs": [],
      "name": "pause",
      "outputs": [],
      "stateMutability": "nonpayable",
      "type": "function"
    },
    {
      "inputs": [],
      "name": "paused",
      "outputs": [
        {
          "internalType": "bool",
          "name": "",
          "type": "bool"
        }
      ],
      "stateMutability": "view",
      "type": "function"
    },
    {
      "inputs": [
        {
          "internalType": "address",
          "name": "beneficiary",
          "type": "address"
        }
      ],
      "name": "removeFromWhitelist",
      "outputs": [],
      "stateMutability": "nonpayable",
      "type": "function"
    },
    {
      "inputs": [],
      "name": "renounceOwnership",
      "outputs": [],
      "stateMutability": "nonpayable",
      "type": "function"
    },
    {
      "inputs": [
        {
          "internalType": "address",
          "name": "beneficiary",
          "type": "address"
        }
      ],
      "name": "revokeVesting",
      "outputs": [],
      "stateMutability": "nonpayable",
      "type": "function"
    },
    {
      "inputs": [],
      "name": "token",
      "outputs": [
        {
          "internalType": "address",
          "name": "",
          "type": "address"
        }
      ],
      "stateMutability": "view",
      "type": "function"
    },
    {
      "inputs": [
        {
          "internalType": "address",
          "name": "newOwner",
          "type": "address"
        }
      ],
      "name": "transferOwnership",
      "outputs": [],
      "stateMutability": "nonpayable",
      "type": "function"
    },
    {
      "inputs": [],
      "name": "unpause",
      "outputs": [],
      "stateMutability": "nonpayable",
      "type": "function"
    },
    {
      "inputs": [
        {
          "internalType": "address",
          "name": "",
          "type": "address"
        }
      ],
      "name": "vestingSchedules",
      "outputs": [
        {
          "internalType": "uint256",
          "name": "totalAmount",
          "type": "uint256"
        },
        {
          "internalType": "uint256",
          "name": "startTime",
          "type": "uint256"
        },
        {
          "internalType": "uint256",
          "name": "cliffDuration",
          "type": "uint256"
        },
        {
          "internalType": "uint256",
          "name": "vestDuration",
          "type": "uint256"
        },
        {
          "internalType": "uint256",
          "name": "amountClaimed",
          "type": "uint256"
        },
        {
          "internalType": "bool",
          "name": "revoked",
          "type": "bool"
        }
      ],
      "stateMutability": "view",
      "type": "function"
    },
    {
      "inputs": [
        {
          "internalType": "address",
          "name": "",
          "type": "address"
        }
      ],
      "name": "whitelist",
      "outputs": [
        {
          "internalType": "bool",
          "name": "",
          "type": "bool"
        }
      ],
      "stateMutability": "view",
      "type": "function"
    }
  ],
  "bytecode": "0x608060405234801561001057600080fd5b5060405161112638038061112683398101604081905261002f916100e5565b338061005557604051631e4fbdf760e01b81526000600482015260240160405180910390fd5b61005e81610095565b506000805460ff60a01b1916905560018055600280546001600160a01b0319166001600160a01b0392909216919091179055610115565b600080546001600160a01b038381166001600160a01b0319831681178455604051919092169283917f8be0079c531659141344cd1fd0a4f28419497f9722a3daafe3b4186f6b6457e09190a35050565b6000602082840312156100f757600080fd5b81516001600160a01b038116811461010e57600080fd5b9392505050565b611002806101246000396000f3fe608060405234801561001057600080fd5b50600436106100c55760003560e01c80631bf0b08b146100ca5780633b0da260146100df5780633f4ba83a146100f25780635c975abb146100fa578063715018a6146101175780638456cb591461011f5780638ab1d681146101275780638da5cb5b1461013a5780639b19251a1461014f578063e43252d714610172578063e74f3fbb14610185578063f2fde38b1461018d578063fc0c546a146101a0578063fdb20ccb146101b3578063ffa06b2a1461022b575b600080fd5b6100dd6100d8366004610e9e565b61024c565b005b6100dd6100ed366004610ee0565b6105c3565b6100dd61084f565b610102610861565b60405190151581526020015b60405180910390f35b6100dd610871565b6100dd610883565b6100dd610135366004610ee0565b610893565b6101426108e4565b60405161010e9190610f02565b61010261015d366004610ee0565b60046020526000908152604090205460ff1681565b6100dd610180366004610ee0565b6108f3565b6100dd61098f565b6100dd61019b366004610ee0565b610b82565b600254610142906001600160a01b031681565b6101fc6101c1366004610ee0565b600360208190526000918252604090912080546001820154600283015493830154600484015460059094015492949193919290919060ff1686565b6040805196875260208701959095529385019290925260608401526080830152151560a082015260c00161010e565b61023e610239366004610ee0565b610bbd565b60405190815260200161010e565b610254610cf9565b6001600160a01b038516600090815260046020526040902054859060ff166102c15760405162461bcd60e51b815260206004820152601b60248201527a10995b99599a58da585c9e481b9bdd081dda1a5d195b1a5cdd1959602a1b60448201526064015b60405180910390fd5b6102c9610d2b565b6102d1610d51565b4282116103325760405162461bcd60e51b815260206004820152602960248201527f56657374696e67207363686564756c65206d75737420737461727420696e207460448201526868652066757475726560b81b60648201526084016102b8565b6000851161038c5760405162461bcd60e51b815260206004820152602160248201527f576861742061726520796f75206576656e20747279696e6720746f20766573746044820152603f60f81b60648201526084016102b8565b6000831161041a5760405162461bcd60e51b815260206004820152604f60248201527f56657374206475726174696f6e206d757374206265206772656174657220746860448201527f616e20302c206f72207468697320636f6e74726163742077696c6c206d69736560648201526e7261626c79206661696c2c2062726f60881b608482015260a4016102b8565b60006040518060c00160405280878152602001848152602001868152602001858152602001600081526020016000151581525090508060036000896001600160a01b03166001600160a01b03168152602001908152602001600020600082015181600001556020820151816001015560408201518160020155606082015181600301556080820151816004015560a08201518160050160006101000a81548160ff021916908315150217905550905050600260009054906101000a90046001600160a01b03166001600160a01b03166323b872dd6104f66108e4565b6040516001600160e01b031960e084901b1681526001600160a01b039091166004820152306024820152604481018990526064016020604051808303816000875af1158015610549573d6000803e3d6000fd5b505050506040513d601f19601f8201168201806040525081019061056d9190610f16565b50866001600160a01b03167f969705509595726740fe60cc30769bbd53c883efff4d8e70108a82817e0392a9876040516105a991815260200190565b60405180910390a2506105bb60018055565b505050505050565b6105cb610cf9565b6105d3610d51565b6001600160a01b038116600090815260036020818152604092839020835160c081018552815481526001820154928101929092526002810154938201939093529082015460608201526004820154608082015260059091015460ff1615801560a08301526106755760405162461bcd60e51b815260206004820152600f60248201526e105b1c9958591e481c995d9bdad959608a1b60448201526064016102b8565b600160a082018181526001600160a01b03841660008181526003602081815260408084208851815591880151968201969096558587015160028201556060870151918101919091556080860151600482015592516005909301805460ff19169315159390931790925591517f68d870ac0aff3819234e8a1fc8f357b40d75212f2dc8594b97690fa205b3bab29190a2600061070f83610bbd565b905060008260800151826107239190610f4e565b905080156107a25760025460405163a9059cbb60e01b81526001600160a01b039091169063a9059cbb9061075d9087908590600401610f67565b6020604051808303816000875af115801561077c573d6000803e3d6000fd5b505050506040513d601f19601f820116820180604052508101906107a09190610f16565b505b82516000906107b2908490610f4e565b1115610840576002546001600160a01b031663a9059cbb6107d16108e4565b85516107de908690610f4e565b6040518363ffffffff1660e01b81526004016107fb929190610f67565b6020604051808303816000875af115801561081a573d6000803e3d6000fd5b505050506040513d601f19601f8201168201806040525081019061083e9190610f16565b505b50505061084c60018055565b50565b610857610cf9565b61085f610d7b565b565b600054600160a01b900460ff1690565b610879610cf9565b61085f6000610dca565b61088b610cf9565b61085f610e1a565b61089b610cf9565b6001600160a01b038116600081815260046020526040808220805460ff19169055517f1ecef1b5180dc14b16608c5c5ec1fa28998e2f94e460b91c1b50bdfb643cc1389190a250565b6000546001600160a01b031690565b6108fb610cf9565b6001600160a01b0381166109435760405162461bcd60e51b815260206004820152600f60248201526e496e76616c6964206164647265737360881b60448201526064016102b8565b6001600160a01b038116600081815260046020526040808220805460ff19166001179055517f07e751107375f503d05dfa76b5038ce1c5b7d46e9e45768f913ac333780394399190a250565b610997610d2b565b61099f610d51565b33600081815260036020818152604092839020835160c081018552815481526001820154928101929092526002810154938201939093529082015460608201526004820154608082015260059091015460ff1615801560a0830152610a415760405162461bcd60e51b815260206004820152601860248201527715995cdd1a5b99c81cd8da19591d5b19481c995d9bdad95960421b60448201526064016102b8565b6000610a4c83610bbd565b90506000826080015182610a609190610f4e565b905080600003610aa75760405162461bcd60e51b81526020600482015260126024820152714e6f20746f6b656e7320746f20636c61696d60701b60448201526064016102b8565b6001600160a01b03841660008181526003602052604090819020600401849055517f896e034966eaaf1adc54acc0f257056febbd300c9e47182cf761982cf1f5e43090610af79084815260200190565b60405180910390a260025460405163a9059cbb60e01b81526001600160a01b039091169063a9059cbb90610b319087908590600401610f67565b6020604051808303816000875af1158015610b50573d6000803e3d6000fd5b505050506040513d601f19601f82011682018060405250810190610b749190610f16565b505050505061085f60018055565b610b8a610cf9565b6001600160a01b038116610bb4576000604051631e4fbdf760e01b81526004016102b89190610f02565b61084c81610dca565b6001600160a01b0381166000908152600360208181526040808420815160c08101835281548082526001830154948201949094526002820154928101929092529283015460608201526004830154608082015260059092015460ff16151560a0830152610c695760405162461bcd60e51b815260206004820152601a60248201527915995cdd1a5b99c81cd8da19591d5b19481b9bdd08199bdd5b9960321b60448201526064016102b8565b604081015160208201514291600091610c829190610f80565b9050808211610c9657506000949350505050565b82606001518360200151610caa9190610f80565b8210610cb95750505192915050565b6000836020015183610ccb9190610f4e565b905060008460600151828660000151610ce49190610f93565b610cee9190610faa565b979650505050505050565b33610d026108e4565b6001600160a01b03161461085f573360405163118cdaa760e01b81526004016102b89190610f02565b610d33610861565b1561085f5760405163d93c066560e01b815260040160405180910390fd5b600260015403610d7457604051633ee5aeb560e01b815260040160405180910390fd5b6002600155565b610d83610e5d565b6000805460ff60a01b191690557f5db9ee0a495bf2e6ff9c91a7834c1ba4fdd244a5e8aa4e537bd38aeae4b073aa335b604051610dc09190610f02565b60405180910390a1565b600080546001600160a01b038381166001600160a01b0319831681178455604051919092169283917f8be0079c531659141344cd1fd0a4f28419497f9722a3daafe3b4186f6b6457e09190a35050565b610e22610d2b565b6000805460ff60a01b1916600160a01b1790557f62e78cea01bee320cd4e420270b5ea74000d11b0c9f74754ebdbfc544b05a258610db33390565b610e65610861565b61085f57604051638dfc202b60e01b815260040160405180910390fd5b80356001600160a01b0381168114610e9957600080fd5b919050565b600080600080600060a08688031215610eb657600080fd5b610ebf86610e82565b97602087013597506040870135966060810135965060800135945092505050565b600060208284031215610ef257600080fd5b610efb82610e82565b9392505050565b6001600160a01b0391909116815260200190565b600060208284031215610f2857600080fd5b81518015158114610efb57600080fd5b634e487b7160e01b600052601160045260246000fd5b81810381811115610f6157610f61610f38565b92915050565b6001600160a01b03929092168252602082015260400190565b80820180821115610f6157610f61610f38565b8082028115828204841417610f6157610f61610f38565b600082610fc757634e487b7160e01b600052601260045260246000fd5b50049056fea2646970667358221220c959251d2b14022f03b3227478d3f07bbba6712558cbf46497703f39879c40a464736f6c63430008140033",
  "linkReferences": {},
  "deployedLinkReferences": {}
}